{
  "contractName": "Campaign",
  "abi": [
    {
      "constant": true,
      "inputs": [
        {
          "name": "",
          "type": "address"
        }
      ],
      "name": "approvers",
      "outputs": [
        {
          "name": "",
          "type": "bool"
        }
      ],
      "payable": false,
      "stateMutability": "view",
      "type": "function"
    },
    {
      "constant": true,
      "inputs": [
        {
          "name": "",
          "type": "uint256"
        }
      ],
      "name": "contributers",
      "outputs": [
        {
          "name": "",
          "type": "address"
        }
      ],
      "payable": false,
      "stateMutability": "view",
      "type": "function"
    },
    {
      "constant": true,
      "inputs": [],
      "name": "manager",
      "outputs": [
        {
          "name": "",
          "type": "address"
        }
      ],
      "payable": false,
      "stateMutability": "view",
      "type": "function"
    },
    {
      "constant": true,
      "inputs": [],
      "name": "profit",
      "outputs": [
        {
          "name": "",
          "type": "uint256"
        }
      ],
      "payable": false,
      "stateMutability": "view",
      "type": "function"
    },
    {
      "constant": true,
      "inputs": [],
      "name": "CampaignName",
      "outputs": [
        {
          "name": "",
          "type": "string"
        }
      ],
      "payable": false,
      "stateMutability": "view",
      "type": "function"
    },
    {
      "constant": true,
      "inputs": [
        {
          "name": "",
          "type": "uint256"
        }
      ],
      "name": "requests",
      "outputs": [
        {
          "name": "description",
          "type": "string"
        },
        {
          "name": "value",
          "type": "uint256"
        },
        {
          "name": "recipient",
          "type": "address"
        },
        {
          "name": "complete",
          "type": "bool"
        },
        {
          "name": "approvalCount",
          "type": "uint256"
        }
      ],
      "payable": false,
      "stateMutability": "view",
      "type": "function"
    },
    {
      "constant": true,
      "inputs": [],
      "name": "approversCount",
      "outputs": [
        {
          "name": "",
          "type": "uint256"
        }
      ],
      "payable": false,
      "stateMutability": "view",
      "type": "function"
    },
    {
      "constant": true,
      "inputs": [],
      "name": "targetToAchive",
      "outputs": [
        {
          "name": "",
          "type": "uint256"
        }
      ],
      "payable": false,
      "stateMutability": "view",
      "type": "function"
    },
    {
      "constant": true,
      "inputs": [],
      "name": "CampaignDescription",
      "outputs": [
        {
          "name": "",
          "type": "string"
        }
      ],
      "payable": false,
      "stateMutability": "view",
      "type": "function"
    },
    {
      "constant": true,
      "inputs": [],
      "name": "minimunContribution",
      "outputs": [
        {
          "name": "",
          "type": "uint256"
        }
      ],
      "payable": false,
      "stateMutability": "view",
      "type": "function"
    },
    {
      "constant": true,
      "inputs": [],
      "name": "imageUrl",
      "outputs": [
        {
          "name": "",
          "type": "string"
        }
      ],
      "payable": false,
      "stateMutability": "view",
      "type": "function"
    },
    {
      "inputs": [
        {
          "name": "minimun",
          "type": "uint256"
        },
        {
          "name": "creator",
          "type": "address"
        },
        {
          "name": "name",
          "type": "string"
        },
        {
          "name": "description",
          "type": "string"
        },
        {
          "name": "image",
          "type": "string"
        },
        {
          "name": "target",
          "type": "uint256"
        }
      ],
      "payable": false,
      "stateMutability": "nonpayable",
      "type": "constructor"
    },
    {
      "constant": false,
      "inputs": [],
      "name": "contibute",
      "outputs": [],
      "payable": true,
      "stateMutability": "payable",
      "type": "function"
    },
    {
      "constant": false,
      "inputs": [
        {
          "name": "description",
          "type": "string"
        },
        {
          "name": "value",
          "type": "uint256"
        },
        {
          "name": "recipient",
          "type": "address"
        }
      ],
      "name": "createRequest",
      "outputs": [],
      "payable": false,
      "stateMutability": "nonpayable",
      "type": "function"
    },
    {
      "constant": false,
      "inputs": [
        {
          "name": "index",
          "type": "uint256"
        }
      ],
      "name": "approveRequest",
      "outputs": [],
      "payable": false,
      "stateMutability": "nonpayable",
      "type": "function"
    },
    {
      "constant": false,
      "inputs": [
        {
          "name": "index",
          "type": "uint256"
        }
      ],
      "name": "finalizeRequest",
      "outputs": [],
      "payable": false,
      "stateMutability": "nonpayable",
      "type": "function"
    },
    {
      "constant": false,
      "inputs": [
        {
          "name": "p",
          "type": "uint256"
        }
      ],
      "name": "getProfit",
      "outputs": [],
      "payable": false,
      "stateMutability": "nonpayable",
      "type": "function"
    },
    {
      "constant": true,
      "inputs": [],
      "name": "getSummary",
      "outputs": [
        {
          "name": "",
          "type": "uint256"
        },
        {
          "name": "",
          "type": "uint256"
        },
        {
          "name": "",
          "type": "uint256"
        },
        {
          "name": "",
          "type": "uint256"
        },
        {
          "name": "",
          "type": "address"
        },
        {
          "name": "",
          "type": "string"
        },
        {
          "name": "",
          "type": "string"
        },
        {
          "name": "",
          "type": "string"
        },
        {
          "name": "",
          "type": "uint256"
        }
      ],
      "payable": false,
      "stateMutability": "view",
      "type": "function"
    },
    {
      "constant": true,
      "inputs": [],
      "name": "getRequestsCount",
      "outputs": [
        {
          "name": "",
          "type": "uint256"
        }
      ],
      "payable": false,
      "stateMutability": "view",
      "type": "function"
    }
  ],
  "bytecode": "0x60806040523480156200001157600080fd5b50604051620017dc380380620017dc83398101806040528101908080519060200190929190805190602001909291908051820192919060200180518201929190602001805182019291906020018051906020019092919050505084600160006101000a81548173ffffffffffffffffffffffffffffffffffffffff021916908373ffffffffffffffffffffffffffffffffffffffff160217905550856002819055508360039080519060200190620000cb92919062000111565b508260049080519060200190620000e492919062000111565b508160059080519060200190620000fd92919062000111565b5080600681905550505050505050620001c0565b828054600181600116156101000203166002900490600052602060002090601f016020900481019282601f106200015457805160ff191683800117855562000185565b8280016001018555821562000185579182015b828111156200018457825182559160200191906001019062000167565b5b50905062000194919062000198565b5090565b620001bd91905b80821115620001b95760008160009055506001016200019f565b5090565b90565b61160c80620001d06000396000f3006080604052600436106100fc576000357c0100000000000000000000000000000000000000000000000000000000900463ffffffff16806303441006146101015780630a1443911461012e5780631fbed579146101895780633410452a146101f65780634051ddac14610221578063481c6a75146103df57806366d16cc3146104365780637e7cd1b31461046157806381d12c58146104f157806382fde093146105e35780638a9cfd551461060e5780638b85165d146106a157806397654a8c146106cc578063a7f337151461075c578063a91b2e9f14610787578063aba83150146107b4578063d7d1bbdb14610844578063ea25213f14610871575b600080fd5b34801561010d57600080fd5b5061012c6004803603810190808035906020019092919050505061087b565b005b34801561013a57600080fd5b5061016f600480360381019080803573ffffffffffffffffffffffffffffffffffffffff169060200190929190505050610a30565b604051808215151515815260200191505060405180910390f35b34801561019557600080fd5b506101b460048036038101908080359060200190929190505050610a50565b604051808273ffffffffffffffffffffffffffffffffffffffff1673ffffffffffffffffffffffffffffffffffffffff16815260200191505060405180910390f35b34801561020257600080fd5b5061020b610a8e565b6040518082815260200191505060405180910390f35b34801561022d57600080fd5b50610236610a9a565b604051808a81526020018981526020018881526020018781526020018673ffffffffffffffffffffffffffffffffffffffff1673ffffffffffffffffffffffffffffffffffffffff168152602001806020018060200180602001858152602001848103845288818151815260200191508051906020019080838360005b838110156102ce5780820151818401526020810190506102b3565b50505050905090810190601f1680156102fb5780820380516001836020036101000a031916815260200191505b50848103835287818151815260200191508051906020019080838360005b83811015610334578082015181840152602081019050610319565b50505050905090810190601f1680156103615780820380516001836020036101000a031916815260200191505b50848103825286818151815260200191508051906020019080838360005b8381101561039a57808201518184015260208101905061037f565b50505050905090810190601f1680156103c75780820380516001836020036101000a031916815260200191505b509c5050505050505050505050505060405180910390f35b3480156103eb57600080fd5b506103f4610cea565b604051808273ffffffffffffffffffffffffffffffffffffffff1673ffffffffffffffffffffffffffffffffffffffff16815260200191505060405180910390f35b34801561044257600080fd5b5061044b610d10565b6040518082815260200191505060405180910390f35b34801561046d57600080fd5b50610476610d16565b6040518080602001828103825283818151815260200191508051906020019080838360005b838110156104b657808201518184015260208101905061049b565b50505050905090810190601f1680156104e35780820380516001836020036101000a031916815260200191505b509250505060405180910390f35b3480156104fd57600080fd5b5061051c60048036038101908080359060200190929190505050610db4565b60405180806020018681526020018573ffffffffffffffffffffffffffffffffffffffff1673ffffffffffffffffffffffffffffffffffffffff16815260200184151515158152602001838152602001828103825287818151815260200191508051906020019080838360005b838110156105a4578082015181840152602081019050610589565b50505050905090810190601f1680156105d15780820380516001836020036101000a031916815260200191505b50965050505050505060405180910390f35b3480156105ef57600080fd5b506105f8610ebe565b6040518082815260200191505060405180910390f35b34801561061a57600080fd5b5061069f600480360381019080803590602001908201803590602001908080601f016020809104026020016040519081016040528093929190818152602001838380828437820191505050505050919291929080359060200190929190803573ffffffffffffffffffffffffffffffffffffffff169060200190929190505050610ec4565b005b3480156106ad57600080fd5b506106b661103b565b6040518082815260200191505060405180910390f35b3480156106d857600080fd5b506106e1611041565b6040518080602001828103825283818151815260200191508051906020019080838360005b83811015610721578082015181840152602081019050610706565b50505050905090810190601f16801561074e5780820380516001836020036101000a031916815260200191505b509250505060405180910390f35b34801561076857600080fd5b506107716110df565b6040518082815260200191505060405180910390f35b34801561079357600080fd5b506107b2600480360381019080803590602001909291905050506110e5565b005b3480156107c057600080fd5b506107c96111fb565b6040518080602001828103825283818151815260200191508051906020019080838360005b838110156108095780820151818401526020810190506107ee565b50505050905090810190601f1680156108365780820380516001836020036101000a031916815260200191505b509250505060405180910390f35b34801561085057600080fd5b5061086f60048036038101908080359060200190929190505050611299565b005b610879611411565b005b600160009054906101000a900473ffffffffffffffffffffffffffffffffffffffff1673ffffffffffffffffffffffffffffffffffffffff163373ffffffffffffffffffffffffffffffffffffffff161415156108d757600080fd5b60026009548115156108e557fe5b046000828154811015156108f557fe5b90600052602060002090600502016003015411151561091357600080fd5b60008181548110151561092257fe5b906000526020600020906005020160020160149054906101000a900460ff1615151561094d57600080fd5b60008181548110151561095c57fe5b906000526020600020906005020160020160009054906101000a900473ffffffffffffffffffffffffffffffffffffffff1673ffffffffffffffffffffffffffffffffffffffff166108fc6000838154811015156109b657fe5b9060005260206000209060050201600101549081150290604051600060405180830381858888f193505050501580156109f3573d6000803e3d6000fd5b506001600082815481101515610a0557fe5b906000526020600020906005020160020160146101000a81548160ff02191690831515021790555050565b60086020528060005260406000206000915054906101000a900460ff1681565b600781815481101515610a5f57fe5b906000526020600020016000915054906101000a900473ffffffffffffffffffffffffffffffffffffffff1681565b60008080549050905090565b6000806000806000606080606060006002543073ffffffffffffffffffffffffffffffffffffffff1631600080549050600954600160009054906101000a900473ffffffffffffffffffffffffffffffffffffffff16600360046005600654838054600181600116156101000203166002900480601f016020809104026020016040519081016040528092919081815260200182805460018160011615610100020316600290048015610b8e5780601f10610b6357610100808354040283529160200191610b8e565b820191906000526020600020905b815481529060010190602001808311610b7157829003601f168201915b50505050509350828054600181600116156101000203166002900480601f016020809104026020016040519081016040528092919081815260200182805460018160011615610100020316600290048015610c2a5780601f10610bff57610100808354040283529160200191610c2a565b820191906000526020600020905b815481529060010190602001808311610c0d57829003601f168201915b50505050509250818054600181600116156101000203166002900480601f016020809104026020016040519081016040528092919081815260200182805460018160011615610100020316600290048015610cc65780601f10610c9b57610100808354040283529160200191610cc6565b820191906000526020600020905b815481529060010190602001808311610ca957829003601f168201915b50505050509150985098509850985098509850985098509850909192939495969798565b600160009054906101000a900473ffffffffffffffffffffffffffffffffffffffff1681565b600a5481565b60038054600181600116156101000203166002900480601f016020809104026020016040519081016040528092919081815260200182805460018160011615610100020316600290048015610dac5780601f10610d8157610100808354040283529160200191610dac565b820191906000526020600020905b815481529060010190602001808311610d8f57829003601f168201915b505050505081565b600081815481101515610dc357fe5b9060005260206000209060050201600091509050806000018054600181600116156101000203166002900480601f016020809104026020016040519081016040528092919081815260200182805460018160011615610100020316600290048015610e6f5780601f10610e4457610100808354040283529160200191610e6f565b820191906000526020600020905b815481529060010190602001808311610e5257829003601f168201915b5050505050908060010154908060020160009054906101000a900473ffffffffffffffffffffffffffffffffffffffff16908060020160149054906101000a900460ff16908060030154905085565b60095481565b610ecc6114f3565b600160009054906101000a900473ffffffffffffffffffffffffffffffffffffffff1673ffffffffffffffffffffffffffffffffffffffff163373ffffffffffffffffffffffffffffffffffffffff16141515610f2857600080fd5b60a0604051908101604052808581526020018481526020018373ffffffffffffffffffffffffffffffffffffffff16815260200160001515815260200160008152509050600081908060018154018082558091505090600182039060005260206000209060050201600090919290919091506000820151816000019080519060200190610fb692919061153b565b506020820151816001015560408201518160020160006101000a81548173ffffffffffffffffffffffffffffffffffffffff021916908373ffffffffffffffffffffffffffffffffffffffff16021790555060608201518160020160146101000a81548160ff0219169083151502179055506080820151816003015550505050505050565b60065481565b60048054600181600116156101000203166002900480601f0160208091040260200160405190810160405280929190818152602001828054600181600116156101000203166002900480156110d75780601f106110ac576101008083540402835291602001916110d7565b820191906000526020600020905b8154815290600101906020018083116110ba57829003601f168201915b505050505081565b60025481565b600080600160009054906101000a900473ffffffffffffffffffffffffffffffffffffffff1673ffffffffffffffffffffffffffffffffffffffff163373ffffffffffffffffffffffffffffffffffffffff1614151561114457600080fd5b6007805490508381151561115457fe5b049150600090505b6007805490508110156111f65760078181548110151561117857fe5b9060005260206000200160009054906101000a900473ffffffffffffffffffffffffffffffffffffffff1673ffffffffffffffffffffffffffffffffffffffff166108fc839081150290604051600060405180830381858888f193505050501580156111e8573d6000803e3d6000fd5b50808060010191505061115c565b505050565b60058054600181600116156101000203166002900480601f0160208091040260200160405190810160405280929190818152602001828054600181600116156101000203166002900480156112915780601f1061126657610100808354040283529160200191611291565b820191906000526020600020905b81548152906001019060200180831161127457829003601f168201915b505050505081565b600860003373ffffffffffffffffffffffffffffffffffffffff1673ffffffffffffffffffffffffffffffffffffffff16815260200190815260200160002060009054906101000a900460ff1615156112f157600080fd5b60008181548110151561130057fe5b906000526020600020906005020160040160003373ffffffffffffffffffffffffffffffffffffffff1673ffffffffffffffffffffffffffffffffffffffff16815260200190815260200160002060009054906101000a900460ff1615151561136857600080fd5b600160008281548110151561137957fe5b906000526020600020906005020160040160003373ffffffffffffffffffffffffffffffffffffffff1673ffffffffffffffffffffffffffffffffffffffff16815260200190815260200160002060006101000a81548160ff0219169083151502179055506000818154811015156113ed57fe5b90600052602060002090600502016003016000815480929190600101919050555050565b6002543411151561142157600080fd5b60073390806001815401808255809150509060018203906000526020600020016000909192909190916101000a81548173ffffffffffffffffffffffffffffffffffffffff021916908373ffffffffffffffffffffffffffffffffffffffff160217905550506001600860003373ffffffffffffffffffffffffffffffffffffffff1673ffffffffffffffffffffffffffffffffffffffff16815260200190815260200160002060006101000a81548160ff021916908315150217905550600960008154809291906001019190505550565b60a0604051908101604052806060815260200160008152602001600073ffffffffffffffffffffffffffffffffffffffff168152602001600015158152602001600081525090565b828054600181600116156101000203166002900490600052602060002090601f016020900481019282601f1061157c57805160ff19168380011785556115aa565b828001600101855582156115aa579182015b828111156115a957825182559160200191906001019061158e565b5b5090506115b791906115bb565b5090565b6115dd91905b808211156115d95760008160009055506001016115c1565b5090565b905600a165627a7a72305820424dc4f0bbeda4b32f475d49c6bf1c31319eab787ba4169c3456fc0e4e326d370029",
  "source": "// SPDX-License-Identifier: MIT\r\npragma solidity ^0.4.23;\r\n\r\ncontract CampaignFactory {\r\n    address[] public deployedCampaigns;\r\n\r\n    function createCampaign(uint minimum,string name,string description,string image,uint target) public {\r\n        address newCampaign = new Campaign(minimum, msg.sender,name,description,image,target);\r\n        deployedCampaigns.push(newCampaign);\r\n    }\r\n\r\n    function getDeployedCampaigns() public view returns (address[]) {\r\n        return deployedCampaigns;\r\n    }\r\n}\r\n\r\n\r\ncontract Campaign {\r\n  struct Request {\r\n      string description;\r\n      uint value;\r\n      address recipient;\r\n      bool complete;\r\n      uint approvalCount;\r\n      mapping(address => bool) approvals;\r\n  }\r\n\r\n  Request[] public requests;\r\n  address public manager;\r\n  uint public minimunContribution;\r\n  string public CampaignName;\r\n  string public CampaignDescription;\r\n  string public imageUrl;\r\n  uint public targetToAchive;\r\n  address[] public contributers;\r\n  mapping(address => bool) public approvers;\r\n  uint public approversCount;\r\n  uint public profit;\r\n\r\n  modifier restricted() {\r\n      require(msg.sender == manager);\r\n      _;\r\n  }\r\n\r\n  function Campaign(uint minimun, address creator,string name,string description,string image,uint target) public {\r\n      manager = creator;\r\n      minimunContribution = minimun;\r\n      CampaignName=name;\r\n      CampaignDescription=description;\r\n      imageUrl=image;\r\n      targetToAchive=target;\r\n  }\r\n\r\n  function contibute() public payable {\r\n      require(msg.value > minimunContribution );\r\n\r\n      contributers.push(msg.sender);\r\n      approvers[msg.sender] = true;\r\n      approversCount++;\r\n  }\r\n\r\n  function createRequest(string description, uint value, address recipient) public restricted {\r\n      Request memory newRequest = Request({\r\n         description: description,\r\n         value: value,\r\n         recipient: recipient,\r\n         complete: false,\r\n         approvalCount: 0\r\n      });\r\n\r\n      requests.push(newRequest);\r\n  }\r\n\r\n  function approveRequest(uint index) public {\r\n      require(approvers[msg.sender]);\r\n      require(!requests[index].approvals[msg.sender]);\r\n\r\n      requests[index].approvals[msg.sender] = true;\r\n      requests[index].approvalCount++;\r\n  }\r\n\r\n  function finalizeRequest(uint index) public restricted{\r\n      require(requests[index].approvalCount > (approversCount / 2));\r\n      require(!requests[index].complete);\r\n\r\n      requests[index].recipient.transfer(requests[index].value);\r\n      requests[index].complete = true;\r\n\r\n  }\r\n\r\n  function getProfit(uint p) public restricted {\r\n      uint profitPer = p/contributers.length;\r\n      for(uint i=0;i<contributers.length;i++){\r\n          contributers[i].transfer(profitPer);\r\n      }\r\n  }\r\n    function getSummary() public view returns (uint,uint,uint,uint,address,string,string,string,uint) {\r\n        return(\r\n            minimunContribution,\r\n            this.balance,\r\n            requests.length,\r\n            approversCount,\r\n            manager,\r\n            CampaignName,\r\n            CampaignDescription,\r\n            imageUrl,\r\n            targetToAchive\r\n          );\r\n    }\r\n\r\n    function getRequestsCount() public view returns (uint){\r\n        return requests.length;\r\n    }\r\n}",
  "sourcePath": "D:\\TestKick\\contracts\\Campaign.sol",
  "compiler": {
    "name": "solc",
    "version": "0.4.23+commit.124ca40d.Emscripten.clang"
  },
  "schemaVersion": "3.4.2",
  "updatedAt": "2021-08-01T04:30:43.030Z",
  "devdoc": {
    "methods": {}
  },
  "userdoc": {
    "methods": {}
  }
}